:100000000C9462000C948A000C948A000C948A0070
:100010000C948A000C948A000C948A000C948A0038
:100020000C948A000C948A000C948A000C948A0028
:100030000C948A000C948A000C948A000C948A0018
:100040000C9464030C948A000C9432030C940C03FB
:100050000C948A000C948A000C948A000C948A00F8
:100060000C948A000C948A000000000024002700F1
:100070002A0000000000250028002B0000000000DE
:1000800023002600290004040404040404040202DA
:100090000202020203030303030301020408102007
:1000A0004080010204081020010204081020000012
:1000B0000008000201000003040700000000000027
:1000C0000000AE0311241FBECFEFD8E0DEBFCDBFCE
:1000D00011E0A0E0B1E0E2EEFEE002C005900D927A
:1000E000A636B107D9F722E0A6E6B1E001C01D921D
:1000F000A438B207E1F710E0C2E6D0E004C02197CF
:10010000FE010E944207C136D107C9F70E94ED03E4
:100110000C946F070C940000EFE9F1E0A089B1891D
:1001200082E08C93A485B5851C92A685B7858FEC5B
:100130008C93108EA489B58986E08C93A289B389AB
:100140008C9180618C93A289B3898C9188608C9307
:10015000A289B3898C9180688C930288F389E02D01
:1001600080818F7D80830895CF92DF92EF92FF92FE
:100170000F931F93CF93DF936C017A018B01C0E043
:10018000D0E0CE15DF0589F0D8016D918D01D60143
:10019000ED91FC910190F081E02DC6010995892B2C
:1001A00011F47E0102C02196ECCFC701DF91CF91FF
:1001B0001F910F91FF90EF90DF90CF900895FC0179
:1001C000918D828D981761F0828DDF01A80FB11D8E
:1001D0005D968C91928D9F5F9F73928F90E00895B2
:1001E0008FEF9FEF0895FC01918D828D981731F06C
:1001F000828DE80FF11D858D90E008958FEF9FEFC0
:100200000895FC01918D228D892F90E0805C9F4F95
:10021000821B91098F73992708958FE991E00E94BD
:10022000010121E0892B09F420E0822F0895FC01CF
:10023000848DDF01A80FB11DA35ABF4F2C91848D6F
:1002400090E001968F739927848FA689B7892C93A4
:10025000A089B1898C9180648C93938D848D98133F
:1002600006C00288F389E02D80818F7D8083089508
:10027000EF92FF920F931F93CF93DF93EC0181E0F6
:10028000888F9B8D8C8D981305C0E889F9898081B2
:1002900085FD24C0F62E0B8D10E00F5F1F4F0F73EE
:1002A0001127E02E8C8DE8120CC00FB607FCFACF98
:1002B000E889F989808185FFF5CFCE010E94170179
:1002C000F1CF8B8DFE01E80FF11DE35AFF4FF08255
:1002D0000B8FEA89FB898081806207C0EE89FF89E4
:1002E0006083E889F98980818064808381E090E07F
:1002F000DF91CF911F910F91FF90EF900895CF93D1
:10030000DF93EC01888D8823C9F0EA89FB8980811D
:1003100085FD05C0A889B9898C9186FD0FC00FB6EF
:1003200007FCF5CF808185FFF2CFA889B9898C9130
:1003300085FFEDCFCE010E941701E7CFDF91CF916E
:10034000089580E090E0892B29F00E940D01811131
:100350000C9400000895833081F028F4813099F0E6
:100360008230A1F008958730A9F08830B9F0843048
:10037000D1F4809180008F7D03C0809180008F77C1
:1003800080938000089584B58F7702C084B58F7DF7
:1003900084BD08958091B0008F7703C08091B00034
:1003A0008F7D8093B0000895CF93DF93E0EBF0E072
:1003B0008491ECE9F0E0D491E8E8F0E0C491CC233A
:1003C00091F081110E94AB01EC2FF0E0EE0FFF1FC6
:1003D000E458FF4FA591B491EC91ED2381E090E0BA
:1003E00021F480E002C080E090E0DF91CF91089599
:1003F0001F93CF93DF93282F30E0F901E255FF4F91
:100400008491F901E656FF4FD491F901EA57FF4F65
:10041000C491CC23C9F0162F81110E94AB01EC2F9F
:10042000F0E0EE0FFF1FEE58FF4FA591B4918FB78C
:10043000F894111105C09C91ED2FE095E92302C0BD
:10044000EC91ED2BEC938FBFDF91CF911F9108952D
:10045000CF93DF9390E0FC01E656FF4F2491FC011F
:10046000EA57FF4F8491882361F190E0880F991F2C
:10047000FC01E859FF4FC591D491FC01EE58FF4FA4
:10048000A591B491611109C09FB7F8948881209516
:1004900082238883EC912E230BC0623061F49FB7D6
:1004A000F8943881822F809583238883EC912E2BBA
:1004B0002C939FBF06C08FB7F894E8812E2B28831A
:1004C0008FBFDF91CF9108958E3008F08E508770E6
:1004D000806480937C0080917A00806480937A00AD
:1004E00080917A0086FDFCCF809178002091790080
:1004F00090E0922B08953FB7F89480916B01909112
:100500006C01A0916D01B0916E0126B5A89B05C04C
:100510002F3F19F00196A11DB11D3FBFBA2FA92F82
:10052000982F8827820F911DA11DB11DBC01CD01FF
:1005300042E0660F771F881F991F4A95D1F70895EB
:100540002FB7F894609167017091680180916901FB
:1005500090916A012FBF08950E94480761157105A7
:1005600079F0FB0101900020E9F73197AF01461BBC
:10057000570BDC01ED91FC910280F381E02D099491
:1005800080E090E008954F925F926F927F92EF9299
:10059000FF920F931F93CF93DF93CDB7DEB7A19751
:1005A0000FB6F894DEBF0FBECDBF7C01FA01CB01C0
:1005B00019A2223008F42AE08E010F5D1F4F422E4F
:1005C000512C612C712CBF01A30192010E944D0797
:1005D000F901CA01015011096A3014F4605D01C0CB
:1005E000695CD8016C93232B242B252B61F7B80170
:1005F000C7010E94AE02A1960FB6F894DEBF0FBEEF
:10060000CDBFDF91CF911F910F91FF90EF907F9021
:100610006F905F904F9008951F920F920FB60F92B8
:1006200011242F933F934F935F936F937F938F93F7
:100630009F93AF93BF93EF93FF938FE991E00E9455
:100640001701FF91EF91BF91AF919F918F917F9192
:100650006F915F914F913F912F910F900FBE0F902F
:100660001F9018951F920F920FB60F9211242F937F
:100670008F939F93EF93FF93E091AF01F091B001BF
:100680008081E091B501F091B60182FD12C09081A8
:100690008091B8018F5F8F732091B901821751F05B
:1006A000E091B801F0E0E156FE4F958F8093B801DC
:1006B00001C08081FF91EF919F918F912F910F90B9
:1006C0000FBE0F901F9018951F920F920FB60F92AA
:1006D00011242F933F938F939F93AF93BF93809158
:1006E000670190916801A0916901B0916A01309110
:1006F000660123E0230F2D3720F40196A11DB11DC3
:1007000005C026E8230F0296A11DB11D20936601A6
:100710008093670190936801A0936901B0936A0187
:1007200080916B0190916C01A0916D01B0916E016F
:100730000196A11DB11D80936B0190936C01A09354
:100740006D01B0936E01BF91AF919F918F913F91D9
:100750002F910F900FBE0F901F901895EFE9F1E0C9
:100760001382128288EE93E0A0E0B0E08483958348
:10077000A683B78384E091E09183808385EC90E049
:100780009587848784EC90E09787868780EC90E05B
:10079000918B808B81EC90E0938B828B82EC90E04C
:1007A000958B848B86EC90E0978B868B118E128EC6
:1007B000138E148EECE3F2E01682178210861186F7
:1007C000128613861486158616861786108A118A55
:1007D000128A138A148A158A0895789484B58260DF
:1007E00084BD84B5816084BD85B5826085BD85B5D5
:1007F000816085BD80916E00816080936E00109253
:1008000081008091810082608093810080918100CD
:10081000816080938100809180008160809380005E
:100820008091B10084608093B1008091B0008160BC
:100830008093B00080917A00846080937A008091E8
:100840007A00826080937A0080917A008160809340
:100850007A0080917A00806880937A001092C100BB
:1008600010928002109281021092820210928302F2
:1008700010923E0210923F021092400210924102EA
:100880000E94A0026B017C014B015C0128EB820EEF
:100890002BE0921EA11CB11C0E94A0026C157D05CC
:1008A0008E059F0528F086169706A806B906A0F7BC
:1008B0008FE991E090937F0280937E020E948C00EA
:1008C0000E94A00260933E0270933F028093400218
:1008D0009093410260E171E080917E0290917F02ED
:1008E0000E94AE020E94A0026B017C014B015C01E0
:1008F0003AE0830E911CA11CB11C0E94A0026C1551
:100900007D058E059F0528F086169706A806B90670
:10091000A0F781E0809352020E948C0005E711E06D
:10092000CDE0D0E0D801CD93DD938D0161E08C2F37
:100930000E9428022197B1E009381B0799F761E06E
:1009400083E00E94280260E082E00E94280298EE84
:10095000492E93E0592E612C712C22242394312CA2
:1009600002E010E00E94A002672B682B692B41F483
:100970000E94A002623071058105910508F41CC136
:100980000E94A00260939B0170939C0180939D0143
:1009900090939E01C0909701D0909801E0909901AA
:1009A000F0909A016C157D058E059F0540F46093CB
:1009B0009701709398018093990190939A01C09048
:1009C0009701D0909801E0909901F0909A019B01D5
:1009D000AC012C193D094E095F0969017A013AEF12
:1009E000C316D104E104F10408F4E6C06093970152
:1009F000709398018093990190939A0184EF91E00C
:100A0000A0E0B0E080934A0290934B02A0934C0286
:100A1000B0934D0210924E0210924F02109250026B
:100A2000109251028091420290914302A09144029F
:100A3000B09145028093460290934702A0934802EA
:100A4000B09349020E94A002609342027093430255
:100A500080934402909345020E94A00260933E025C
:100A600070933F0280934002909341020E94A00243
:100A70006B017C0162E271E080917E0290917F02C5
:100A80000E94AE022AE041E050E060E070E0809118
:100A90007E0290917F020E94C30269E271E0809120
:100AA0007E0290917F020E94AE022AE0B701A60169
:100AB00080917E0290917F020E94C3026BE271E0FE
:100AC00080917E0290917F020E94AE02809142024C
:100AD00090914302A0914402B0914502B701A60152
:100AE000481B590B6A0B7B0B2AE080917E02909188
:100AF0007F020E94C3026BE271E080917E029091BE
:100B00007F020E94AE0240914202509143026091E6
:100B10004402709145028091460290914702A09153
:100B20004802B0914902481B590B6A0B7B0B2AE023
:100B300080917E0290917F020E94C3026DE271E07B
:100B400080917E0290917F020E94AE020E94A002DC
:100B5000AB01BC012AE080917E0290917F020E944D
:100B6000C302C0917E02D0917F026FE271E0CE019C
:100B70000E94AE026FE171E0CE010E94AE020E94BF
:100B8000A0026B017C014B015C0192E0890E911C7B
:100B9000A11CB11C0E94A0026C157D058E059F054D
:100BA00008F069C10E94A002609342027093430260
:100BB0008093440290934502809195019091960113
:100BC0008230910509F4A8C02CF4009799F00197A0
:100BD000E9F14EC18330910509F4BBC0049709F0D7
:100BE00047C14092710150927201609273017092FC
:100BF000740115C10E947B024B015C0180E7C82E85
:100C000087E1D82EE12CF12C0E947B02DC01CB0184
:100C100088199909AA09BB09883E9340A105B10525
:100C200058F0A1E0CA1AD108E108F108B8EE8B0E1D
:100C3000B3E09B1EA11CB11CC114D104E104F1045A
:100C400019F7309296012092950112C166E371E086
:100C50008FE991E00E94AE028EE00E946402092EAC
:100C6000000CAA0BBB0B8093910190939201A0936F
:100C70009301B093940183E10E946402092E000C59
:100C8000AA0BBB0B80938D0190938E01A0938F01D3
:100C9000B0939001C0909501D09096010D2C000C5E
:100CA000EE08FF08F7FE14C0E0919F01F091A0014B
:100CB0000190F081E02D6DE28FE991E009954427E4
:100CC0005527BA014C195D096E097F092AE003C056
:100CD0002AE0B701A6018FE991E00E94C30280914A
:100CE000910190919201A0919301B0919401B7FF6D
:100CF00010C020E23EE440E050E0209389013093B0
:100D00008A0140938B0150938C01109396010093BC
:100D100095010E94D4014FC067E471E08FE991E032
:100D20000E94AE028091890190918A01A0918B016D
:100D3000B0918C01181619061A061B062CF461E0F6
:100D400083E00E94F801EECF60E083E00E94F801AA
:100D500032C067E571E08FE991E00E94AE02C5E71D
:100D6000D1E08881229661E00E94F80131E0CB3821
:100D7000D307B9F780918D0190918E01A0918F01D9
:100D8000B0919001181619061A061B060CF070C0D7
:100D9000C0E0D0E0E12CF12CCB30D10564F4F701B8
:100DA000EB58FE4F60E080810E94F801219642E0FE
:100DB000E40EF11CF1CF109296011092950158C0EB
:100DC0000E94D401892BC1F5C5E7D1E0E12CF12CBB
:100DD00080916F0190917001E816F90609F446C000
:100DE00060E088810E94F8015FEFE51AF50A22961B
:100DF0008AE0E816F10461F7809171019091720127
:100E0000A0917301B09174010197A109B109809378
:100E1000710190937201A0937301B093740180915A
:100E2000710190917201A0917301B0917401892BAD
:100E30008A2B8B2B29F21CC080916F01909170013D
:100E40008930910529F41092700110926F0105C04C
:100E500001969093700180936F01409271015092BE
:100E600072016092730170927401AECF61E0B9CFEC
:100E70000E94A10177CD86169706A806B90608F04C
:100E800089CE90CEEE0FFF1F0590F491E02D0994CE
:100E900081E090E0F8940C946F07A1E21A2EAA1B4F
:100EA000BB1BFD010DC0AA1FBB1FEE1FFF1FA2171A
:100EB000B307E407F50720F0A21BB30BE40BF50B17
:100EC000661F771F881F991F1A9469F760957095A0
:100ED000809590959B01AC01BD01CF010895F894D8
:020EE000FFCF42
:100EE200000000003801B4000101DF00F3007F01BF
:100EF200564D4450565F317C315F564D4450560D2D
:100F02000A00564D4450455F003A323A007C005F79
:100F1200564D44504500436865636B696E672056C1
:100F2200616C7565200A005374617274696E672082
:100F320070756D70200A004275636B657420656D73
:060F4200707479200A0022
:107E0000112484B714BE81FFF0D085E080938100F7
:107E100082E08093C00088E18093C10086E0809377
:107E2000C20080E18093C4008EE0C9D0259A86E02C
:107E300020E33CEF91E0309385002093840096BBD3
:107E4000B09BFECF1D9AA8958150A9F7CC24DD24C4
:107E500088248394B5E0AB2EA1E19A2EF3E0BF2EE7
:107E6000A2D0813461F49FD0082FAFD0023811F036
:107E7000013811F484E001C083E08DD089C08234E0
:107E800011F484E103C0853419F485E0A6D080C0E4
:107E9000853579F488D0E82EFF2485D0082F10E0AE
:107EA000102F00270E291F29000F111F8ED06801E7
:107EB0006FC0863521F484E090D080E0DECF843638
:107EC00009F040C070D06FD0082F6DD080E0C81688
:107ED00080E7D80618F4F601B7BEE895C0E0D1E017
:107EE00062D089930C17E1F7F0E0CF16F0E7DF06D8
:107EF00018F0F601B7BEE89568D007B600FCFDCFD4
:107F0000A601A0E0B1E02C9130E011968C91119780
:107F100090E0982F8827822B932B1296FA010C0160
:107F200087BEE89511244E5F5F4FF1E0A038BF0790
:107F300051F7F601A7BEE89507B600FCFDCF97BE46
:107F4000E89526C08437B1F42ED02DD0F82E2BD052
:107F50003CD0F601EF2C8F010F5F1F4F84911BD097
:107F6000EA94F801C1F70894C11CD11CFA94CF0C13
:107F7000D11C0EC0853739F428D08EE10CD085E9AC
:107F80000AD08FE07ACF813511F488E018D01DD067
:107F900080E101D065CF982F8091C00085FFFCCF94
:107FA0009093C60008958091C00087FFFCCF809118
:107FB000C00084FD01C0A8958091C6000895E0E648
:107FC000F0E098E1908380830895EDDF803219F02E
:107FD00088E0F5DFFFCF84E1DECF1F93182FE3DFCA
:107FE0001150E9F7F2DF1F91089580E0E8DFEE27F6
:047FF000FF270994CA
:027FFE00040479
:0400000300007E007B
:00000001FF