:100000000C9469000C9491000C9491000C94910054
:100010000C9491000C9491000C9491000C9491001C
:100020000C9491000C9491000C9491000C94CD03CD
:100030000C9491000C9491000C9491000C949100FC
:100040000C9483030C9491000C9451030C942B0397
:100050000C9491000C9491000C9491000C949100DC
:100060000C9491000C9491007307DB07DE08610883
:100070001C096509C50900000000240027002A00AA
:1000800000000000250028002B00000000002300D5
:1000900026002900040404040404040402020202E9
:1000A000020203030303030301020408102040803B
:1000B00001020408102001020408102000000008BA
:1000C000000201000003040700000000000000001F
:1000D0008E0411241FBECFEFD8E0DEBFCDBF11E0EC
:1000E000A0E0B1E0EAE6F5E102C005900D92AE367F
:1000F000B107D9F722E0AEE6B1E001C01D92A33D01
:10010000B207E1F710E0C9E6D0E004C02197FE0194
:100110000E944D0AC836D107C9F70E940C050C94FD
:10012000B30A0C940000E6ECF1E0A089B18982E00A
:100130008C93A485B5851C92A685B7858FEC8C938E
:10014000108EA489B58986E08C93A289B3898C919D
:1001500080618C93A289B3898C9188608C93A289E9
:10016000B3898C9180688C930288F389E02D80811B
:100170008F7D80830895CF92DF92EF92FF920F934D
:100180001F93CF93DF936C017A018B01C0E0D0E025
:10019000CE15DF0589F0D8016D918D01D601ED9165
:1001A000FC910190F081E02DC6010995892B11F495
:1001B0007E0102C02196ECCFC701DF91CF911F9144
:1001C0000F91FF90EF90DF90CF900895FC01918DFB
:1001D000828D981761F0828DDF01A80FB11D5D96A9
:1001E0008C91928D9F5F9F73928F90E008958FEF17
:1001F0009FEF0895FC01918D828D981731F0828DCB
:10020000E80FF11D858D90E008958FEF9FEF089521
:10021000FC01918D228D892F90E0805C9F4F821B85
:1002200091098F739927089586EC91E00E94080147
:1002300021E0892B09F420E0822F0895FC01848DB0
:10024000DF01A80FB11DA35ABF4F2C91848D90E000
:1002500001968F739927848FA689B7892C93A089DB
:10026000B1898C9180648C93938D848D981306C092
:100270000288F389E02D80818F7D80830895EF923D
:10028000FF920F931F93CF93DF93EC0181E0888F50
:100290009B8D8C8D981305C0E889F989808185FD37
:1002A00024C0F62E0B8D10E00F5F1F4F0F73112728
:1002B000E02E8C8DE8120CC00FB607FCFACFE8894F
:1002C000F989808185FFF5CFCE010E941E01F1CF13
:1002D0008B8DFE01E80FF11DE35AFF4FF0820B8F6B
:1002E000EA89FB898081806207C0EE89FF8960838B
:1002F000E889F98980818064808381E090E0DF91E2
:10030000CF911F910F91FF90EF900895CF93DF93BE
:10031000EC01888D8823C9F0EA89FB89808185FDFD
:1003200005C0A889B9898C9186FD0FC00FB607FC5E
:10033000F5CF808185FFF2CFA889B9898C9185FF9F
:10034000EDCFCE010E941E01E7CFDF91CF9108953E
:1003500080E090E0892B29F00E94140181110C9417
:1003600000000895833081F028F4813099F08230C4
:10037000A1F008958730A9F08830B9F08430D1F425
:10038000809180008F7D03C0809180008F77809363
:100390008000089584B58F7702C084B58F7D84BDB9
:1003A00008958091B0008F7703C08091B0008F7D59
:1003B0008093B0000895CF93DF93282F30E0F901A8
:1003C000E454FF4F8491F901E855FF4FD491F901AE
:1003D000EC56FF4FC491CC2391F081110E94B201E1
:1003E000EC2FF0E0EE0FFF1FE657FF4FA591B49101
:1003F000EC91ED2381E090E021F480E002C080E008
:1004000090E0DF91CF9108951F93CF93DF93282F32
:1004100030E0F901E454FF4F8491F901E855FF4FB2
:10042000D491F901EC56FF4FC491CC23C9F0162F9B
:1004300081110E94B201EC2FF0E0EE0FFF1FE05897
:10044000FF4FA591B4918FB7F894111105C09C91FD
:10045000ED2FE095E92302C0EC91ED2BEC938FBFDB
:10046000DF91CF911F910895CF93DF9390E0FC012E
:10047000E855FF4F2491FC01EC56FF4F84918823EF
:1004800061F190E0880F991FFC01EA58FF4FC59178
:10049000D491FC01E058FF4FA591B491611109C0BE
:1004A0009FB7F8948881209582238883EC912E232E
:1004B0000BC0623061F49FB7F8943881822F809529
:1004C00083238883EC912E2B2C939FBF06C08FB77C
:1004D000F894E8812E2B28838FBFDF91CF91089568
:1004E0008E3008F08E508770806480937C008091FD
:1004F0007A00806480937A0080917A0086FDFCCF38
:10050000809178002091790090E0922B08952FB788
:10051000F8946091740170917501809176019091C9
:1005200077012FBF08950E94530A6115710579F074
:10053000FB0101900020E9F73197AF01461B570BF3
:10054000DC01ED91FC910280F381E02D099480E0C3
:1005500090E008954F925F926F927F92EF92FF9298
:100560000F931F93CF93DF93CDB7DEB7A1970FB64D
:10057000F894DEBF0FBECDBF7C01FA01CB0119A2FA
:10058000223008F42AE08E010F5D1F4F422E512CBD
:10059000612C712CBF01A30192010E94580AF9013C
:1005A000CA01015011096A3014F4605D01C0695C30
:1005B000D8016C93232B242B252B61F7B801C7019D
:1005C0000E949502A1960FB6F894DEBF0FBECDBF74
:1005D000DF91CF911F910F91FF90EF907F906F90DF
:1005E0005F904F900895CF92DF92EF92FF92CF935A
:1005F000DF93AB01BC0177FF23C06A017B01E0916F
:10060000C601F091C7010190F081E02D6DE286EC0A
:1006100091E00995EC0144275527BA014C195D0971
:100620006E097F092AE086EC91E00E94AA028C0FF5
:100630009D1FDF91CF91FF90EF90DF90CF900895B5
:100640002AE086EC91E0DF91CF91FF90EF90DF9070
:10065000CF900C94AA021F920F920FB60F92112402
:100660002F933F934F935F936F937F938F939F93BA
:10067000AF93BF93EF93FF9386EC91E00E941E012E
:10068000FF91EF91BF91AF919F918F917F916F916A
:100690005F914F913F912F910F900FBE0F901F9040
:1006A00018951F920F920FB60F9211242F938F93CC
:1006B0009F93EF93FF93E091D601F091D701808152
:1006C000E091DC01F091DD0182FD12C0908180910A
:1006D000DF018F5F8F732091E001821751F0E0916D
:1006E000DF01F0E0EA53FE4F958F8093DF0101C0F8
:1006F0008081FF91EF919F918F912F910F900FBE6D
:100700000F901F9018951F920F920FB60F92112401
:100710002F933F938F939F93AF93BF9380917401D7
:1007200090917501A0917601B0917701309173019C
:1007300023E0230F2D3720F40196A11DB11D05C024
:1007400026E8230F0296A11DB11D2093730180930B
:10075000740190937501A0937601B0937701809115
:100760006F0190917001A0917101B0917201019699
:10077000A11DB11D80936F0190937001A093710131
:10078000B0937201BF91AF919F918F913F912F9143
:100790000F900FBE0F901F9018951F920F920FB6DB
:1007A0000F9211242F933F934F935F936F937F93F7
:1007B0008F939F93AF93BF93EF93FF9380916E01BD
:1007C00087FF05C010928500109284001BC0209105
:1007D0006E01022E000C330B8091CF0290E028179F
:1007E000390784F480916E01082E000C990BFC01EE
:1007F000EE0FFF1F8E0F9F1FFC01E555FD4F8081FF
:1008000086FD15C080916E018F5F80936E012091EF
:100810006E01022E000C330B8091CF0290E028175E
:100820003907C4F480916E018C3064F113C080915B
:100830006E01082E000C990BFC01EE0FFF1F8E0FAE
:100840009F1FFC01E555FD4F808160E08F730E9482
:100850000402D8CF80918400909185000496803462
:100860009C4918F480E49CE905C080918400909133
:100870008500049690938900809388008FEF809381
:100880006E013BC0209184003091850080916E0103
:10089000082E000C990BFC01EE0FFF1F8E0F9F1FFF
:1008A000FC01E555FD4F81819281820F931F90934A
:1008B00089008093880080916E01082E000C990BAE
:1008C000FC01EE0FFF1F8E0F9F1FFC01E555FD4F32
:1008D000808186FF12C080916E01082E000C990B5A
:1008E000FC01EE0FFF1F8E0F9F1FFC01E555FD4F12
:1008F000808161E08F730E940402FF91EF91BF91AC
:10090000AF919F918F917F916F915F914F913F91A7
:100910002F910F900FBE0F901F9018951092C90144
:100920001092C80188EE93E0A0E0B0E08093CA0185
:100930009093CB01A093CC01B093CD0188E091E0DE
:100940009093C7018093C60185EC90E09093D3010A
:100950008093D20184EC90E09093D5018093D401F0
:1009600080EC90E09093D7018093D60181EC90E0E9
:100970009093D9018093D80182EC90E09093DB01B1
:100980008093DA0186EC90E09093DD018093DC01A6
:100990001092DF011092E0011092E1011092E20149
:1009A0001092690210926A0210926B0210926C020D
:1009B00010926D0210926E0210926F0210927002ED
:1009C00010927102109272021092730210927402CD
:1009D00010927502109276021092770210927802AD
:1009E0008091CF028C30A0F491E0980F9093CF02C9
:1009F0008093D00290E0FC01EE0FFF1F8E0F9F1F2F
:100A0000FC01E555FD4F88EB9BE0928381830895BF
:100A10008FEF8093D0020895789484B5826084BD6E
:100A200084B5816084BD85B5826085BD85B58160F2
:100A300085BD80916E00816080936E001092810070
:100A4000809181008260809381008091810081602B
:100A500080938100809180008160809380008091EC
:100A6000B10084608093B1008091B0008160809378
:100A7000B00080917A00846080937A0080917A003F
:100A8000826080937A0080917A00816080937A00FE
:100A900080917A00806880937A001092C100109251
:100AA000A7021092A8021092A9021092AA02109214
:100AB00065021092660210926702109268020E940C
:100AC00087026B017C014B015C0128EB820E2BE05D
:100AD000921EA11CB11C0E9487026C157D058E051B
:100AE0009F0528F086169706A806B906A0F786EC9B
:100AF00091E09093A6028093A5020E9493000E9429
:100B000087026093650270936602809367029093F8
:100B1000680264E171E08091A5029091A6020E94B2
:100B200095020E9487026B017C014B015C013AE057
:100B3000830E911CA11CB11C0E9487026C157D05BF
:100B40008E059F0528F086169706A806B906A0F719
:100B500081E0809379020E9493000CE911E0CDE0DE
:100B6000D0E0D801CD93DD938D0161E08C2F0E9400
:100B700034022197B1E0063A1B0799F761E083E060
:100B80000E94340260E083E00E94340260E082E070
:100B90000E9434028DE290E0909379018093780175
:100BA0008AE590E090937B0180937A0187E890E05A
:100BB00090937D0180937C018091D0028C3008F06D
:100BC00051C061E088E00E9434028091D002E82F99
:100BD000F0E09F01220F331FE20FF31FE555FD4F99
:100BE0009081907C986090831092D1021092D202F2
:100BF0006CE00E94410AECE08E9FB001112440E0BD
:100C000050E09A01260F371FF901EE0FFF1F2E0F3C
:100C10003F1FF901E555FD4F908196FD16C04F5FCE
:100C20005F4F4C30510569F781110FC01092800061
:100C300082E0809381001092850010928400B19A26
:100C400080916F00826080936F00E091D002F0E0AD
:100C5000CF01880F991FE80FF91FE555FD4F8081DF
:100C600080648083C8EE4C2EC3E05C2E612C712C16
:100C700008E810E0D6E02D2E312C0E948702672B69
:100C8000682B692B41F40E9487026230710581054F
:100C9000910508F41CC10E9487026093C201709301
:100CA000C3018093C4019093C501C090BE01D09050
:100CB000BF01E090C001F090C1016C157D058E056B
:100CC0009F0540F46093BE017093BF018093C00103
:100CD0009093C101C090BE01D090BF01E090C001CF
:100CE000F090C1019B01AC012C193D094E095F092F
:100CF00069017A013AEFC316D104E104F10408F462
:100D0000E6C06093BE017093BF018093C0019093D1
:100D1000C10184EF91E0A0E0B0E080937102909374
:100D20007202A0937302B093740210927502109233
:100D30007602109277021092780280916902909167
:100D40006A02A0916B02B0916C0280936D02909345
:100D50006E02A0936F02B09370020E9487026093AC
:100D6000690270936A0280936B0290936C020E94F6
:100D70008702609365027093660280936702909386
:100D800068020E9487026B017C0166E271E080913B
:100D9000A5029091A6020E9495022AE041E050E04F
:100DA00060E070E08091A5029091A6020E94AA02E4
:100DB0006DE271E08091A5029091A6020E949502D9
:100DC0002AE0B701A6018091A5029091A6020E9497
:100DD000AA026FE271E08091A5029091A6020E94A2
:100DE00095028091690290916A02A0916B02B09184
:100DF0006C02B701A601481B590B6A0B7B0B2AE05A
:100E00008091A5029091A6020E94AA026FE271E071
:100E10008091A5029091A6020E94950240916902DC
:100E200050916A0260916B0270916C0280916D0228
:100E300090916E02A0916F02B0917002481B590B05
:100E40006A0B7B0B2AE08091A5029091A6020E947A
:100E5000AA0261E371E08091A5029091A6020E942E
:100E600095020E948702AB01BC012AE08091A50295
:100E70009091A6020E94AA02C091A502D091A6025A
:100E800063E371E0CE010E94950263E271E0CE015E
:100E90000E9495020E9487026B017C014B015C015C
:100EA00092E0890E911CA11CB11C0E9487026C1556
:100EB0007D058E059F0508F0DDC20E9487026093C4
:100EC000690270936A0280936B0290936C02E091C6
:100ED000BC01F091BD01E730F10508F0C8C2EC5C3F
:100EE000FF4F0C944D0AC090B801D090B901E0902A
:100EF000BA01F090BB01A1E0CA1AD108E108F108DB
:100F0000C092B801D092B901E092BA01F092BB014F
:100F100020ED37E040E050E02093B4013093B5017C
:100F20004093B6015093B70182E00E94DB01892B08
:100F300061F03092BD012092BC014092B00150920C
:100F4000B1016092B2017092B30183E00E94DB01B3
:100F5000892B71F045E050E05093BD014093BC01F6
:100F60004092B0015092B1016092B2017092B3010F
:100F70001C141D041E041F0494F080EA96E8A1E0EE
:100F8000B0E08093B8019093B901A093BA01B093F7
:100F9000BB01A1E0B0E0B093BD01A093BC01CCE9DE
:100FA000D1E08881229660E00E940402B1E0C63A56
:100FB000DB07B9F75CC28091980190919901A091EB
:100FC0009A01B0919B010196A11DB11D80939801DA
:100FD00090939901A0939A01B0939B016AE371E009
:100FE00086EC91E00E9495028EE00E947002092E2C
:100FF000000CAA0BBB0B80938C0190938D01A093E6
:101000008E01B0938F018FE00E947002092E000CB8
:10101000AA0BBB0B8093900190939101A093920136
:10102000B093930180E10E947002092E000CAA0B7C
:10103000BB0B8093940190939501A0939601B0937C
:10104000970183E10E947002092E000CAA0BBB0BD2
:101050008093880190938901A0938A01B0938B01BA
:10106000609198017091990180919A0190919B01F2
:101070000E94F3026BE471E086EC91E00E9495021D
:1010800060918C0170918D0180918E0190918F0102
:101090000E94F30264E271E086EC91E00E94950206
:1010A00080918C0190918D01A0918E01B0918F0162
:1010B000B7FFBDC0E2E0F0E0F093BD01E093BC01FA
:1010C000D6C19091D1028091D0028C30D0F4980199
:1010D000291B310997FD3395A3E0220F331FAA95F1
:1010E000E1F7245031094FB7F89490E0FC01EE0F7E
:1010F000FF1F8E0F9F1FFC01E555FD4F328321839B
:101100004FBF8091D20278E5C72E72E0D72EC81A61
:10111000D10887FDD394CC0CDD1CCC0CDD1C0D2C30
:10112000000CEE08FF088091D1024801881A91084E
:1011300087FD9394880C991C880C991C092C000C31
:10114000AA08BB088091D0028F3FC1F090E09C01BB
:10115000220F331F820F931FFC01E555FD4F2181A4
:10116000328153E0220F331F5A95E1F764E0369540
:1011700027956A95E1F72E5F3F4F02C020E030E0EF
:101180002F5F3F4FC901330FAA0BBB0B9C01AD0171
:10119000281939094A095B09A4EBB0E00E94990AB1
:1011A000A7019601281939094A095B090E947A0AA0
:1011B000232B242B252B09F05AC17CCF6EE471E040
:1011C00086EC91E00E949502C090B401D090B501E8
:1011D000E090B601F090B7011C141D041E041F041A
:1011E00014F561E083E00E940402F1E0CF1AD10817
:1011F000E108F108C092B401D092B501E092B601C5
:10120000F092B70164E271E086EC91E00E949502F1
:101210006091B4017091B5018091B6019091B701D0
:101220000E94F30224C160E083E00E940402109255
:10123000BD011092BC011BC16EE571E086EC91E02E
:101240000E94950280918601909187010197909369
:10125000870180938601181619068CF0809184010D
:10126000909185018430910531F00196909385012C
:101270008093840104C01092850110928401E09152
:101280008401F0918501EE0FFF1FE456FE4F61E0EF
:1012900080810E9404028091880190918901A0912F
:1012A0008A01B0918B01181619061A061B060CF05C
:1012B000DEC0CCE9D1E08881229660E00E94040281
:1012C00021E0C63AD207B9F7B2CF4092B0015092AE
:1012D000B1016092B2017092B3018091B00190911E
:1012E000B101A091B201B091B301892B8A2B8B2B54
:1012F00009F0BDC083E00E94DB01892BC9F0809119
:101300008201909183018430910529F41092830128
:101310001092820105C0019690938301809382010F
:101320004092B0015092B1016092B2017092B3014B
:10133000CCE9D1E0E12CF12C8091820190918301E4
:10134000E816F90611F060E001C061E088810E94B2
:1013500004023FEFE31AF30A229645E0E416F10493
:1013600059F78091B0019091B101A091B201B09173
:10137000B3010197A109B1098093B0019093B10124
:10138000A093B201B093B301A8CF60918001709196
:101390008101072E000C880B990B0E94F30264E276
:1013A00071E086EC91E00E94950282E00E94DB01F0
:1013B00021E0892B09F420E020937F018091B00186
:1013C0009091B101A091B201B091B3011816190624
:1013D0001A061B060CF02BCF80917E012817D9F03E
:1013E0002223C9F080918001909181018430910580
:1013F00029F4109281011092800105C0019690930A
:101400008101809380014092B0015092B1016092BD
:10141000B2017092B30120937E018CE9E82E81E045
:10142000F82EC0E0D0E08091800190918101C81732
:10143000D90754F4D7018C91B2E0EB0EF11C61E0B6
:101440000E9404022196EFCF8091B0019091B101EA
:10145000A091B201B091B3010197A109B1098093A4
:10146000B0019093B101A093B201B093B3010E9477
:10147000A80103CC86169706A806B90608F015CD74
:101480001CCD991B79E004C0991F961708F0961B94
:10149000881F7A95C9F780950895EE0FFF1F059074
:1014A000F491E02D099481E090E0F8940C94B30A53
:1014B000A1E21A2EAA1BBB1BFD010DC0AA1FBB1F58
:1014C000EE1FFF1FA217B307E407F50720F0A21BCA
:1014D000B30BE40BF50B661F771F881F991F1A9437
:1014E00069F760957095809590959B01AC01BD0161
:1014F000CF010895052E97FB1EF400940E94910AD7
:1015000057FD07D00E94580A07FC03D04EF40C94F4
:10151000910A50954095309521953F4F4F4F5F4F21
:10152000089590958095709561957F4F8F4F9F4F4F
:1015300008950E94A40AA59F900DB49F900DA49FAA
:10154000800D911D11240895A29FB001B39FC00189
:10155000A39F700D811D1124911DB29F700D811DDF
:0A1560001124911D0895F894FFCFA7
:10156A0001000000000000003F01BB000801E60086
:10157A00FA008601564D4450565F317C315F564D14
:10158A004450560D0A00564D4450455F003A323ACF
:10159A00007C005F564D44504500436865636B69A3
:1015AA006E672056616C7565200A003A20005374F4
:1015BA00617274696E672070756D70200A004275D9
:0E15CA00636B657420656D707479200A0000F3
:107E0000112484B714BE81FFF0D085E080938100F7
:107E100082E08093C00088E18093C10086E0809377
:107E2000C20080E18093C4008EE0C9D0259A86E02C
:107E300020E33CEF91E0309385002093840096BBD3
:107E4000B09BFECF1D9AA8958150A9F7CC24DD24C4
:107E500088248394B5E0AB2EA1E19A2EF3E0BF2EE7
:107E6000A2D0813461F49FD0082FAFD0023811F036
:107E7000013811F484E001C083E08DD089C08234E0
:107E800011F484E103C0853419F485E0A6D080C0E4
:107E9000853579F488D0E82EFF2485D0082F10E0AE
:107EA000102F00270E291F29000F111F8ED06801E7
:107EB0006FC0863521F484E090D080E0DECF843638
:107EC00009F040C070D06FD0082F6DD080E0C81688
:107ED00080E7D80618F4F601B7BEE895C0E0D1E017
:107EE00062D089930C17E1F7F0E0CF16F0E7DF06D8
:107EF00018F0F601B7BEE89568D007B600FCFDCFD4
:107F0000A601A0E0B1E02C9130E011968C91119780
:107F100090E0982F8827822B932B1296FA010C0160
:107F200087BEE89511244E5F5F4FF1E0A038BF0790
:107F300051F7F601A7BEE89507B600FCFDCF97BE46
:107F4000E89526C08437B1F42ED02DD0F82E2BD052
:107F50003CD0F601EF2C8F010F5F1F4F84911BD097
:107F6000EA94F801C1F70894C11CD11CFA94CF0C13
:107F7000D11C0EC0853739F428D08EE10CD085E9AC
:107F80000AD08FE07ACF813511F488E018D01DD067
:107F900080E101D065CF982F8091C00085FFFCCF94
:107FA0009093C60008958091C00087FFFCCF809118
:107FB000C00084FD01C0A8958091C6000895E0E648
:107FC000F0E098E1908380830895EDDF803219F02E
:107FD00088E0F5DFFFCF84E1DECF1F93182FE3DFCA
:107FE0001150E9F7F2DF1F91089580E0E8DFEE27F6
:047FF000FF270994CA
:027FFE00040479
:0400000300007E007B
:00000001FF